S00D0000636C6F636B2E737265630B
S11300000C942A000C9447000C9447000C9447006D
S11300100C9447000C9447000C94C2000C944700C5
S11300200C9447000C9447000C9447000C94470030
S11300300C9447000C9447000C9447000C94470020
S11300400C9447000C9447000C9447000C94470010
S11300500C94470011241FBECFE5D4E0DEBFCDBF12
S113006010E0A0E6B0E0E4E3FAE002C005900D92EF
S1130070A23BB107D9F710E0A2EBB0E001C01D929A
S1130080A83BB107E1F70E9434030C9418050C94C3
S11300900000FB016AE00E940C05905D9083805D86
S11300A0818308950F931F93CF93DF9300D0CDB72F
S11300B0DEB780EC0E94C8049091B60092959F70C0
S11300C08091B70081708295807F892BBE016F5F1C
S11300D07F4F0E9449008A810E94F40489810E9412
S11300E0F40406EB10E0F80192918F019295969535
S11300F0969593708091B6008F70880F880F892B26
S1130100BE016F5F7F4F0E9449008AE30E94F4049E
S11301108A810E94F40489810E94F404F801808198
S11301208F73BE016F5F7F4F0E9449008AE30E9474
S1130130F4048A810E94F40489810E94F404809169
S1130140B7008695837090E08230910559F0833032
S1130150910569F08130910571F480E690E00E9488
S1130160F80409C089E690E00E94F80404C082E71C
S113017090E00E94F8040F900F90DF91CF911F91AF
S11301800F9108951F920F920FB60F9211242F937F
S11301903F934F935F936F937F938F939F93AF930B
S11301A0BF93EF93FF93CF93DF93CDB7DEB7AF97B2
S11301B0DEBFCDBF80E80E94C804DE011196EBE7E4
S11301C0F0E08FE101900D928150E1F7898188235D
S11301D071F080E08F5F282F30E0E1E0F0E0EC0F79
S11301E0FD1FE20FF31F90819923A1F702C020E0C5
S11301F030E04091B200842F90E020513040281725
S1130200390734F1FE01E80FF91F51815523B1F08C
S11302109C01281B390BE0E2F0E0EC0FFD1FE20F1C
S1130220F31F50834F5F242F30E0E1E0F0E0EC0F48
S1130230FD1FE20FF31F5081552359F7CE0180961D
S11302400E94F8048091B2008F5F8093B20009C0CD
S113025033232CF4CE0101960E94F80402C01092BC
S1130260B2009091B500892F8F5F8F73907C892B9A
S11302708093B5008F738C3309F06AC02091B50068
S113028022952695269523709091B600892F8F701C
S1130290880F880F822B8F5F8F73282F2295220F50
S11302A0220F207C2093B500282F26952695907F39
S11302B0922B9093B6008C3309F04AC08091B5001C
S11302C08F738093B50092959F702091B700822F11
S11302D081708295807F892B8F5F8F71982F929583
S11302E0907F9093B600382F32953F70922F9E7F67
S11302F0932B9093B7009670923071F48C30E1F4A4
S11303008091B700887FE7EBF0E092919F70908333
S113031084608093B7001CC0943071F48C3061F415
S11303208091B700887FE7EBF0E092919F70908313
S113033082608093B7000CC0883151F48091B6007C
S11303408F708093B6008091B7008E7F8093B70042
S113035092B381E0892782BB0E945200AF96DEBF30
S1130360CDBFDF91CF91FF91EF91BF91AF919F915D
S11303708F917F916F915F914F913F912F910F904A
S11303800FBE0F901F901895EF92FF920F931F933B
S1130390CF93DF9381E00E94C80480E80E94C804E0
S11303A08AE990E00E94F80480EC0E94C804C7EB3C
S11303B0D0E00E9451048091B300843349F48881D1
S11303C0982F96959F5F9370990F897F892B8883C7
S11303D08881867021F48881897F826088830E9465
S11303E052008091B300873321F7C5EBD0E00E941F
S11303F051048091B300843341F48881982F9F5F26
S11304009F73807C892B888309C0853339F4888164
S1130410982F915C9F73807C892B888388818F734C
S11304208C3319F48881807C888388818F738F331F
S113043021F48881807C8B6388830E9452008091A0
S1130440B3008733A1F6C5EBD0E08E010F5F1F4FD9
S11304500E9451048091B3008433F1F49881392FC0
S11304603295369536953370F8018081282F2F7098
S1130470220F220F232B2F5F322F3F732295220F3F
S1130480220F207C9F73922B9883932F9695969599
S1130490807F892B80831FC08533E9F49881392FAD
S11304A03295369536953370F8018081282F2F7058
S11304B0220F220F232B2150322F3F732295220F1C
S11304C0220F207C9F73922B9883932F9695969559
S11304D0807F892B808398819295969596959370C9
S11304E0F80180818F70880F880F892B8C3339F441
S11304F088818F7388838081807F80830AC08F3353
S113050041F48881806C8883F8018081807F8E60CB
S113051080830E9452008091B300873309F098CF02
S1130520C6EBD0E08E010F5F1F4F0F2EF7EBEF2EBF
S1130530F0E0FF2EF02D0E9451048091B30084332B
S1130540D1F49881392F32953F70F8018081282F9A
S113055021702295207F232B2F5F322F3F7122950C
S1130560207F9F70922B9883932F92959F708E7FFC
S1130570892B80831BC08533C9F49881392F329528
S11305803F70F8018081282F21702295207F232B32
S11305902150322F3F712295207F9F70922B988398
S11305A0932F92959F708E7F892B8083F701808192
S11305B086708630E1F4988192959F70F80180816D
S11305C081708295807F892B883139F488818F707E
S11305D0888380818E7F80830AC08F3141F4888133
S11305E08F7080678883F801808181608083F70140
S11305F080818670823011F08430E1F49881929584
S11306009F70F801808181708295807F892B8C3066
S113061039F488818F70888380818E7F80830AC0BB
S11306208F3141F488818F70806B8883F8018081D9
S11306308E7F80830E9452008091B300873309F03B
S11306407ACFDF91CF911F910F91FF90EF90089592
S11306508EB58C608EBD8BE197EB9BBD8ABD89B74F
S1130660806189BF78940895889A0E94FF030E944C
S1130670EA0481E00E94C8040E94C4010E94280385
S1130680C5EBD0E08E010F5F1F4FEE24FF2468946A
S1130690E1F8EC0EFD1E0E9451048091B3008633F4
S11306A021F48EB58B7F8EBDF6CF833321F48EB5C6
S11306B084608EBDF0CF873341F41882F801108234
S11306C0F70180818E7F8083E6CF883361F48EB515
S11306D08B7F8EBD81E00E94C8040E94C4018EB548
S11306E084608EBDD8CF823399F580E090E00E947B
S11306F0D7038F739881907C892B888381E090E065
S11307000E94D703282F2295220F220F207C988144
S11307109F73922B9883869586958F70F8019081AC
S1130720907F892B808382E090E00E94D703282F5A
S11307302295207FF80190819F70922B908382955F
S11307408F708170F70190819E7F892B8083A3CF66
S1130750813309F0A0CF88818F7360E070E00E943C
S1130760CF0398819295969596959370F801808120
S11307708F70880F880F892B61E070E00E94CF038F
S1130780F801908192959F70F70180818170829524
S1130790807F892B62E070E00E94CF037CCFE199D7
S11307A0FECF7FBB6EBB8DBBE29AE19A0895E199BF
S11307B0FECF9FBB8EBBE09A8DB30895843621F0A3
S11307C08F3F29F090E0089580E090E0089583E65B
S11307D090E008956AE00E940C05906195BBE7EBF8
S11307E0FBE03197F1F700C0000080628F7E85BB8B
S11307F087EB9BE00197F1F700C00000089581B3F7
S11308008C6181BB80EE82BB089585990DC09927C8
S113081087FD9095FC01EE0FFF1F8E0F9F1FFC01BB
S1130820E755FF4F8081089586990DC0992787FD6C
S11308309095FC01EE0FFF1F8E0F9F1FFC01E755E3
S1130840FF4F8181089587990DC0992787FD909561
S1130850FC01EE0FFF1F8E0F9F1FFC01E755FF4F9A
S1130860828108958FE295E70197F1F700C00000B7
S11308708FEF08959298939A949A80E00E940504C9
S11308808F3F71F4929A9398949A81E00E940504A0
S11308908F3F31F4929A939A949882E00E940504CF
S11308A008950E943A049091B400891739F00E9487
S11308B03A048093B4008093B30008958FEF80933B
S11308C0B3000895DF9A87EB9BE00197F1F700C02E
S11308D00000DF9887EB9BE00197F1F700C0000070
S11308E00895CF93DF93C3E0D0E0C79AC69AC59A20
S11308F0C49A8FE59AEE0197F1F700C00000C798FB
S1130900C698C59AC49A0E946204219771F7C79841
S1130910C698C59AC4980E946204DF91CF91089545
S1130920CF93C798C698C598C498882314F0C798DD
S113093001C0C79AC82F86FD02C0C69801C0C69AD6
S1130940C5FD02C0C59801C0C59AC4FD02C0C498C3
S113095001C0C49A0E946204C798C698C598C498F6
S1130960C3FD02C0C79801C0C79AC2FD02C0C698A1
S113097001C0C69AC1FD02C0C59801C0C59AC0FD98
S113098002C0C49801C0C49A0E946204CF91089521
S1130990DD980E94900408950E94710487E99AE307
S11309A00197F1F700C0000088E20E94C80481E0CA
S11309B00E94C8048CE00E94C80486E00E94C80417
S11309C080E80E94C8048FE59AEE0197F1F700C011
S11309D00000089587B3806F87BB8AB380678ABBA2
S11309E0DE980E94CC040895DD9A0E949004089534
S11309F0CF93DF93FC018081882359F0EF01219686
S1130A00DD9A80810E949004FE01219680818823D2
S1130A10B9F7DF91CF910895991B79E004C0991F2C
S1130A20961708F0961B881F7A95C9F78095089544
S1070A30F894FFCF64
S1130A342020414D20202020002020504D20202023
S1130A44200020203234486F7572005265616C2096
S1130A5454696D6520636C6F636B20627920536104
S1130A646D65682041666966690053657474696ECE
S1130A74672054696D65203A003132333435363792
S1050A843839FB
S9030000FC
